{
  "_format": "hh-sol-artifact-1",
  "contractName": "ContractNFT",
  "sourceName": "contracts/ContractNFT.sol",
  "abi": [
    {
      "inputs": [
        {
          "internalType": "string",
          "name": "_name",
          "type": "string"
        },
        {
          "internalType": "string",
          "name": "_symbol",
          "type": "string"
        }
      ],
      "stateMutability": "nonpayable",
      "type": "constructor"
    },
    {
      "anonymous": false,
      "inputs": [
        {
          "indexed": true,
          "internalType": "address",
          "name": "owner",
          "type": "address"
        },
        {
          "indexed": true,
          "internalType": "address",
          "name": "approved",
          "type": "address"
        },
        {
          "indexed": true,
          "internalType": "uint256",
          "name": "tokenId",
          "type": "uint256"
        }
      ],
      "name": "Approval",
      "type": "event"
    },
    {
      "anonymous": false,
      "inputs": [
        {
          "indexed": true,
          "internalType": "address",
          "name": "owner",
          "type": "address"
        },
        {
          "indexed": true,
          "internalType": "address",
          "name": "operator",
          "type": "address"
        },
        {
          "indexed": false,
          "internalType": "bool",
          "name": "approved",
          "type": "bool"
        }
      ],
      "name": "ApprovalForAll",
      "type": "event"
    },
    {
      "anonymous": false,
      "inputs": [
        {
          "indexed": true,
          "internalType": "address",
          "name": "previousOwner",
          "type": "address"
        },
        {
          "indexed": true,
          "internalType": "address",
          "name": "newOwner",
          "type": "address"
        }
      ],
      "name": "OwnershipTransferred",
      "type": "event"
    },
    {
      "anonymous": false,
      "inputs": [
        {
          "indexed": true,
          "internalType": "address",
          "name": "from",
          "type": "address"
        },
        {
          "indexed": true,
          "internalType": "address",
          "name": "to",
          "type": "address"
        },
        {
          "indexed": true,
          "internalType": "uint256",
          "name": "tokenId",
          "type": "uint256"
        }
      ],
      "name": "Transfer",
      "type": "event"
    },
    {
      "inputs": [
        {
          "internalType": "address",
          "name": "to",
          "type": "address"
        },
        {
          "internalType": "uint256",
          "name": "tokenId",
          "type": "uint256"
        }
      ],
      "name": "approve",
      "outputs": [],
      "stateMutability": "nonpayable",
      "type": "function"
    },
    {
      "inputs": [
        {
          "internalType": "address",
          "name": "owner",
          "type": "address"
        }
      ],
      "name": "balanceOf",
      "outputs": [
        {
          "internalType": "uint256",
          "name": "",
          "type": "uint256"
        }
      ],
      "stateMutability": "view",
      "type": "function"
    },
    {
      "inputs": [
        {
          "internalType": "uint256",
          "name": "tokenId",
          "type": "uint256"
        }
      ],
      "name": "getApproved",
      "outputs": [
        {
          "internalType": "address",
          "name": "",
          "type": "address"
        }
      ],
      "stateMutability": "view",
      "type": "function"
    },
    {
      "inputs": [
        {
          "internalType": "address",
          "name": "owner",
          "type": "address"
        },
        {
          "internalType": "address",
          "name": "operator",
          "type": "address"
        }
      ],
      "name": "isApprovedForAll",
      "outputs": [
        {
          "internalType": "bool",
          "name": "",
          "type": "bool"
        }
      ],
      "stateMutability": "view",
      "type": "function"
    },
    {
      "inputs": [
        {
          "internalType": "address",
          "name": "_recipient",
          "type": "address"
        },
        {
          "internalType": "string",
          "name": "_tokenURI",
          "type": "string"
        },
        {
          "internalType": "uint256",
          "name": "_maxSupply",
          "type": "uint256"
        }
      ],
      "name": "mint",
      "outputs": [],
      "stateMutability": "nonpayable",
      "type": "function"
    },
    {
      "inputs": [],
      "name": "name",
      "outputs": [
        {
          "internalType": "string",
          "name": "",
          "type": "string"
        }
      ],
      "stateMutability": "view",
      "type": "function"
    },
    {
      "inputs": [],
      "name": "owner",
      "outputs": [
        {
          "internalType": "address",
          "name": "",
          "type": "address"
        }
      ],
      "stateMutability": "view",
      "type": "function"
    },
    {
      "inputs": [
        {
          "internalType": "uint256",
          "name": "tokenId",
          "type": "uint256"
        }
      ],
      "name": "ownerOf",
      "outputs": [
        {
          "internalType": "address",
          "name": "",
          "type": "address"
        }
      ],
      "stateMutability": "view",
      "type": "function"
    },
    {
      "inputs": [],
      "name": "renounceOwnership",
      "outputs": [],
      "stateMutability": "nonpayable",
      "type": "function"
    },
    {
      "inputs": [
        {
          "internalType": "address",
          "name": "from",
          "type": "address"
        },
        {
          "internalType": "address",
          "name": "to",
          "type": "address"
        },
        {
          "internalType": "uint256",
          "name": "tokenId",
          "type": "uint256"
        }
      ],
      "name": "safeTransferFrom",
      "outputs": [],
      "stateMutability": "nonpayable",
      "type": "function"
    },
    {
      "inputs": [
        {
          "internalType": "address",
          "name": "from",
          "type": "address"
        },
        {
          "internalType": "address",
          "name": "to",
          "type": "address"
        },
        {
          "internalType": "uint256",
          "name": "tokenId",
          "type": "uint256"
        },
        {
          "internalType": "bytes",
          "name": "_data",
          "type": "bytes"
        }
      ],
      "name": "safeTransferFrom",
      "outputs": [],
      "stateMutability": "nonpayable",
      "type": "function"
    },
    {
      "inputs": [
        {
          "internalType": "address",
          "name": "operator",
          "type": "address"
        },
        {
          "internalType": "bool",
          "name": "approved",
          "type": "bool"
        }
      ],
      "name": "setApprovalForAll",
      "outputs": [],
      "stateMutability": "nonpayable",
      "type": "function"
    },
    {
      "inputs": [
        {
          "internalType": "bytes4",
          "name": "interfaceId",
          "type": "bytes4"
        }
      ],
      "name": "supportsInterface",
      "outputs": [
        {
          "internalType": "bool",
          "name": "",
          "type": "bool"
        }
      ],
      "stateMutability": "view",
      "type": "function"
    },
    {
      "inputs": [],
      "name": "symbol",
      "outputs": [
        {
          "internalType": "string",
          "name": "",
          "type": "string"
        }
      ],
      "stateMutability": "view",
      "type": "function"
    },
    {
      "inputs": [
        {
          "internalType": "uint256",
          "name": "tokenId",
          "type": "uint256"
        }
      ],
      "name": "tokenURI",
      "outputs": [
        {
          "internalType": "string",
          "name": "",
          "type": "string"
        }
      ],
      "stateMutability": "view",
      "type": "function"
    },
    {
      "inputs": [
        {
          "internalType": "address",
          "name": "from",
          "type": "address"
        },
        {
          "internalType": "address",
          "name": "to",
          "type": "address"
        },
        {
          "internalType": "uint256",
          "name": "tokenId",
          "type": "uint256"
        }
      ],
      "name": "transferFrom",
      "outputs": [],
      "stateMutability": "nonpayable",
      "type": "function"
    },
    {
      "inputs": [
        {
          "internalType": "address",
          "name": "newOwner",
          "type": "address"
        }
      ],
      "name": "transferOwnership",
      "outputs": [],
      "stateMutability": "nonpayable",
      "type": "function"
    }
  ],
  "bytecode": "0x60806040523480156200001157600080fd5b5060405162001bcb38038062001bcb833981016040819052620000349162000251565b8151829082906200004d906000906020850190620000de565b50805162000063906001906020840190620000de565b505050620000806200007a6200008860201b60201c565b6200008c565b5050620002f8565b3390565b600780546001600160a01b038381166001600160a01b0319831681179093556040519116919082907f8be0079c531659141344cd1fd0a4f28419497f9722a3daafe3b4186f6b6457e090600090a35050565b828054620000ec90620002bb565b90600052602060002090601f0160209004810192826200011057600085556200015b565b82601f106200012b57805160ff19168380011785556200015b565b828001600101855582156200015b579182015b828111156200015b5782518255916020019190600101906200013e565b50620001699291506200016d565b5090565b5b808211156200016957600081556001016200016e565b634e487b7160e01b600052604160045260246000fd5b600082601f830112620001ac57600080fd5b81516001600160401b0380821115620001c957620001c962000184565b604051601f8301601f19908116603f01168101908282118183101715620001f457620001f462000184565b816040528381526020925086838588010111156200021157600080fd5b600091505b8382101562000235578582018301518183018401529082019062000216565b83821115620002475760008385830101525b9695505050505050565b600080604083850312156200026557600080fd5b82516001600160401b03808211156200027d57600080fd5b6200028b868387016200019a565b93506020850151915080821115620002a257600080fd5b50620002b1858286016200019a565b9150509250929050565b600181811c90821680620002d057607f821691505b60208210811415620002f257634e487b7160e01b600052602260045260246000fd5b50919050565b6118c380620003086000396000f3fe608060405234801561001057600080fd5b506004361061010b5760003560e01c8063715018a6116100a2578063b88d4fde11610071578063b88d4fde1461021b578063ba7aef431461022e578063c87b56dd14610241578063e985e9c514610254578063f2fde38b1461029057600080fd5b8063715018a6146101e75780638da5cb5b146101ef57806395d89b4114610200578063a22cb4651461020857600080fd5b806323b872dd116100de57806323b872dd1461018d57806342842e0e146101a05780636352211e146101b357806370a08231146101c657600080fd5b806301ffc9a71461011057806306fdde0314610138578063081812fc1461014d578063095ea7b314610178575b600080fd5b61012361011e36600461131d565b6102a3565b60405190151581526020015b60405180910390f35b6101406102f5565b60405161012f9190611392565b61016061015b3660046113a5565b610387565b6040516001600160a01b03909116815260200161012f565b61018b6101863660046113da565b610414565b005b61018b61019b366004611404565b61052a565b61018b6101ae366004611404565b61055b565b6101606101c13660046113a5565b610576565b6101d96101d4366004611440565b6105ed565b60405190815260200161012f565b61018b610674565b6007546001600160a01b0316610160565b6101406106aa565b61018b61021636600461145b565b6106b9565b61018b610229366004611523565b6106c8565b61018b61023c36600461159f565b610700565b61014061024f3660046113a5565b610766565b61012361026236600461160a565b6001600160a01b03918216600090815260056020908152604080832093909416825291909152205460ff1690565b61018b61029e366004611440565b6108dd565b60006001600160e01b031982166380ac58cd60e01b14806102d457506001600160e01b03198216635b5e139f60e01b145b806102ef57506301ffc9a760e01b6001600160e01b03198316145b92915050565b6060600080546103049061163d565b80601f01602080910402602001604051908101604052809291908181526020018280546103309061163d565b801561037d5780601f106103525761010080835404028352916020019161037d565b820191906000526020600020905b81548152906001019060200180831161036057829003601f168201915b5050505050905090565b600061039282610978565b6103f85760405162461bcd60e51b815260206004820152602c60248201527f4552433732313a20617070726f76656420717565727920666f72206e6f6e657860448201526b34b9ba32b73a103a37b5b2b760a11b60648201526084015b60405180910390fd5b506000908152600460205260409020546001600160a01b031690565b600061041f82610576565b9050806001600160a01b0316836001600160a01b0316141561048d5760405162461bcd60e51b815260206004820152602160248201527f4552433732313a20617070726f76616c20746f2063757272656e74206f776e656044820152603960f91b60648201526084016103ef565b336001600160a01b03821614806104a957506104a98133610262565b61051b5760405162461bcd60e51b815260206004820152603860248201527f4552433732313a20617070726f76652063616c6c6572206973206e6f74206f7760448201527f6e6572206e6f7220617070726f76656420666f7220616c6c000000000000000060648201526084016103ef565b6105258383610995565b505050565b6105343382610a03565b6105505760405162461bcd60e51b81526004016103ef90611678565b610525838383610aec565b610525838383604051806020016040528060008152506106c8565b6000818152600260205260408120546001600160a01b0316806102ef5760405162461bcd60e51b815260206004820152602960248201527f4552433732313a206f776e657220717565727920666f72206e6f6e657869737460448201526832b73a103a37b5b2b760b91b60648201526084016103ef565b60006001600160a01b0382166106585760405162461bcd60e51b815260206004820152602a60248201527f4552433732313a2062616c616e636520717565727920666f7220746865207a65604482015269726f206164647265737360b01b60648201526084016103ef565b506001600160a01b031660009081526003602052604090205490565b6007546001600160a01b0316331461069e5760405162461bcd60e51b81526004016103ef906116c9565b6106a86000610c88565b565b6060600180546103049061163d565b6106c4338383610cda565b5050565b6106d23383610a03565b6106ee5760405162461bcd60e51b81526004016103ef90611678565b6106fa84848484610da9565b50505050565b6007546001600160a01b0316331461072a5760405162461bcd60e51b81526004016103ef906116c9565b610738600880546001019055565b600061074360085490565b90508181111561075257600080fd5b61075c8482610ddc565b6106fa8184610f0f565b606061077182610978565b6107d75760405162461bcd60e51b815260206004820152603160248201527f45524337323155524953746f726167653a2055524920717565727920666f72206044820152703737b732bc34b9ba32b73a103a37b5b2b760791b60648201526084016103ef565b600082815260066020526040812080546107f09061163d565b80601f016020809104026020016040519081016040528092919081815260200182805461081c9061163d565b80156108695780601f1061083e57610100808354040283529160200191610869565b820191906000526020600020905b81548152906001019060200180831161084c57829003601f168201915b50505050509050600061088760408051602081019091526000815290565b905080516000141561089a575092915050565b8151156108cc5780826040516020016108b49291906116fe565b60405160208183030381529060405292505050919050565b6108d584610f9a565b949350505050565b6007546001600160a01b031633146109075760405162461bcd60e51b81526004016103ef906116c9565b6001600160a01b03811661096c5760405162461bcd60e51b815260206004820152602660248201527f4f776e61626c653a206e6577206f776e657220697320746865207a65726f206160448201526564647265737360d01b60648201526084016103ef565b61097581610c88565b50565b6000908152600260205260409020546001600160a01b0316151590565b600081815260046020526040902080546001600160a01b0319166001600160a01b03841690811790915581906109ca82610576565b6001600160a01b03167f8c5be1e5ebec7d5bd14f71427d1e84f3dd0314c0f7b2291e5b200ac8c7c3b92560405160405180910390a45050565b6000610a0e82610978565b610a6f5760405162461bcd60e51b815260206004820152602c60248201527f4552433732313a206f70657261746f7220717565727920666f72206e6f6e657860448201526b34b9ba32b73a103a37b5b2b760a11b60648201526084016103ef565b6000610a7a83610576565b9050806001600160a01b0316846001600160a01b03161480610ac157506001600160a01b0380821660009081526005602090815260408083209388168352929052205460ff165b806108d55750836001600160a01b0316610ada84610387565b6001600160a01b031614949350505050565b826001600160a01b0316610aff82610576565b6001600160a01b031614610b635760405162461bcd60e51b815260206004820152602560248201527f4552433732313a207472616e736665722066726f6d20696e636f72726563742060448201526437bbb732b960d91b60648201526084016103ef565b6001600160a01b038216610bc55760405162461bcd60e51b8152602060048201526024808201527f4552433732313a207472616e7366657220746f20746865207a65726f206164646044820152637265737360e01b60648201526084016103ef565b610bd0600082610995565b6001600160a01b0383166000908152600360205260408120805460019290610bf9908490611743565b90915550506001600160a01b0382166000908152600360205260408120805460019290610c2790849061175a565b909155505060008181526002602052604080822080546001600160a01b0319166001600160a01b0386811691821790925591518493918716917fddf252ad1be2c89b69c2b068fc378daa952ba7f163c4a11628f55a4df523b3ef91a4505050565b600780546001600160a01b038381166001600160a01b0319831681179093556040519116919082907f8be0079c531659141344cd1fd0a4f28419497f9722a3daafe3b4186f6b6457e090600090a35050565b816001600160a01b0316836001600160a01b03161415610d3c5760405162461bcd60e51b815260206004820152601960248201527f4552433732313a20617070726f766520746f2063616c6c65720000000000000060448201526064016103ef565b6001600160a01b03838116600081815260056020908152604080832094871680845294825291829020805460ff191686151590811790915591519182527f17307eab39ab6107e8899845ad3d59bd9653f200f220920489ca2b5937696c31910160405180910390a3505050565b610db4848484610aec565b610dc084848484611072565b6106fa5760405162461bcd60e51b81526004016103ef90611772565b6001600160a01b038216610e325760405162461bcd60e51b815260206004820181905260248201527f4552433732313a206d696e7420746f20746865207a65726f206164647265737360448201526064016103ef565b610e3b81610978565b15610e885760405162461bcd60e51b815260206004820152601c60248201527f4552433732313a20746f6b656e20616c7265616479206d696e7465640000000060448201526064016103ef565b6001600160a01b0382166000908152600360205260408120805460019290610eb190849061175a565b909155505060008181526002602052604080822080546001600160a01b0319166001600160a01b03861690811790915590518392907fddf252ad1be2c89b69c2b068fc378daa952ba7f163c4a11628f55a4df523b3ef908290a45050565b610f1882610978565b610f7b5760405162461bcd60e51b815260206004820152602e60248201527f45524337323155524953746f726167653a2055524920736574206f66206e6f6e60448201526d32bc34b9ba32b73a103a37b5b2b760911b60648201526084016103ef565b600082815260066020908152604090912082516105259284019061126e565b6060610fa582610978565b6110095760405162461bcd60e51b815260206004820152602f60248201527f4552433732314d657461646174613a2055524920717565727920666f72206e6f60448201526e3732bc34b9ba32b73a103a37b5b2b760891b60648201526084016103ef565b600061102060408051602081019091526000815290565b90506000815111611040576040518060200160405280600081525061106b565b8061104a84611170565b60405160200161105b9291906116fe565b6040516020818303038152906040525b9392505050565b60006001600160a01b0384163b1561116557604051630a85bd0160e11b81526001600160a01b0385169063150b7a02906110b69033908990889088906004016117c4565b6020604051808303816000875af19250505080156110f1575060408051601f3d908101601f191682019092526110ee91810190611801565b60015b61114b573d80801561111f576040519150601f19603f3d011682016040523d82523d6000602084013e611124565b606091505b5080516111435760405162461bcd60e51b81526004016103ef90611772565b805181602001fd5b6001600160e01b031916630a85bd0160e11b1490506108d5565b506001949350505050565b6060816111945750506040805180820190915260018152600360fc1b602082015290565b8160005b81156111be57806111a88161181e565b91506111b79050600a8361184f565b9150611198565b60008167ffffffffffffffff8111156111d9576111d9611497565b6040519080825280601f01601f191660200182016040528015611203576020820181803683370190505b5090505b84156108d557611218600183611743565b9150611225600a86611863565b61123090603061175a565b60f81b81838151811061124557611245611877565b60200101906001600160f81b031916908160001a905350611267600a8661184f565b9450611207565b82805461127a9061163d565b90600052602060002090601f01602090048101928261129c57600085556112e2565b82601f106112b557805160ff19168380011785556112e2565b828001600101855582156112e2579182015b828111156112e25782518255916020019190600101906112c7565b506112ee9291506112f2565b5090565b5b808211156112ee57600081556001016112f3565b6001600160e01b03198116811461097557600080fd5b60006020828403121561132f57600080fd5b813561106b81611307565b60005b8381101561135557818101518382015260200161133d565b838111156106fa5750506000910152565b6000815180845261137e81602086016020860161133a565b601f01601f19169290920160200192915050565b60208152600061106b6020830184611366565b6000602082840312156113b757600080fd5b5035919050565b80356001600160a01b03811681146113d557600080fd5b919050565b600080604083850312156113ed57600080fd5b6113f6836113be565b946020939093013593505050565b60008060006060848603121561141957600080fd5b611422846113be565b9250611430602085016113be565b9150604084013590509250925092565b60006020828403121561145257600080fd5b61106b826113be565b6000806040838503121561146e57600080fd5b611477836113be565b91506020830135801515811461148c57600080fd5b809150509250929050565b634e487b7160e01b600052604160045260246000fd5b600067ffffffffffffffff808411156114c8576114c8611497565b604051601f8501601f19908116603f011681019082821181831017156114f0576114f0611497565b8160405280935085815286868601111561150957600080fd5b858560208301376000602087830101525050509392505050565b6000806000806080858703121561153957600080fd5b611542856113be565b9350611550602086016113be565b925060408501359150606085013567ffffffffffffffff81111561157357600080fd5b8501601f8101871361158457600080fd5b611593878235602084016114ad565b91505092959194509250565b6000806000606084860312156115b457600080fd5b6115bd846113be565b9250602084013567ffffffffffffffff8111156115d957600080fd5b8401601f810186136115ea57600080fd5b6115f9868235602084016114ad565b925050604084013590509250925092565b6000806040838503121561161d57600080fd5b611626836113be565b9150611634602084016113be565b90509250929050565b600181811c9082168061165157607f821691505b6020821081141561167257634e487b7160e01b600052602260045260246000fd5b50919050565b60208082526031908201527f4552433732313a207472616e736665722063616c6c6572206973206e6f74206f6040820152701ddb995c881b9bdc88185c1c1c9bdd9959607a1b606082015260800190565b6020808252818101527f4f776e61626c653a2063616c6c6572206973206e6f7420746865206f776e6572604082015260600190565b6000835161171081846020880161133a565b83519083019061172481836020880161133a565b01949350505050565b634e487b7160e01b600052601160045260246000fd5b6000828210156117555761175561172d565b500390565b6000821982111561176d5761176d61172d565b500190565b60208082526032908201527f4552433732313a207472616e7366657220746f206e6f6e20455243373231526560408201527131b2b4bb32b91034b6b83632b6b2b73a32b960711b606082015260800190565b6001600160a01b03858116825284166020820152604081018390526080606082018190526000906117f790830184611366565b9695505050505050565b60006020828403121561181357600080fd5b815161106b81611307565b60006000198214156118325761183261172d565b5060010190565b634e487b7160e01b600052601260045260246000fd5b60008261185e5761185e611839565b500490565b60008261187257611872611839565b500690565b634e487b7160e01b600052603260045260246000fdfea264697066735822122038aaa8c18c6b362f3fe0e6dca27215779ad4cd68fe1d9fd4e2db078e47fc9a0b64736f6c634300080c0033",
  "linkReferences": {},
  "deployedLinkReferences": {}
}